:1002B2007FBFDFEFF7FBFDFE000000000000000043
:0C02C200C1010813000040407E404000D5
:1002A200758920758DFD759850D28ED2AFD2AC2251
:1001FE00E4FF120264E99002B293F580741329F8B9
:09020E00E6FF1202647F067E0087
:10021700E4FDFCC3ED9FEC9E5015E4FBFA0BBB001D
:0F022700010AEB647B4A70F50DBD00010C80E409
:0102360022A5
:0802DA008F993099FDC29922B1
:030023000202CF07
:0B02CF0030980785991BC298D20132BD
:10026400C2B6C2CDE4FEEEC39408748094805016E6
:10027400EFC4131313540124FF92B4EF25E0FFD20B
:0A028400B6C2B60E80E0D2CDC2CDA6
:01028E00224D
:10028F00E4F9E9C394087480948050061201FE09C2
:02029F0080F0ED
:0102A100223A
:10000300E4FEEEC39F500C74132EF8A61B3098FD2C
:0E0013000E80EFE515644070057F481202DA9A
:0100210022BC
:1001A800E4F508D200F509780A7C00FD7BFF7A02A5
:1001B80079BAFE7F081200F6300130E4F509C3E58C
:1001C80009940774809480501C300115740A25091D
:1001D800F8E6651B6006C200C2018009C2013098BA
:1001E800FD050980D9851B083098FD300007B2A0AD
:0501F800AF0812000336
:0101FD0022DF
:100237001202A2E4F51CF51DE4F9E9C394087480E1
:10024700948050061201FE0980F0051DE51D70021D
:0D025700051CC3941EE51C940040DD80D6FC
:0300000002011CDE
:0C011C00787FE4F6D8FD758120020163B5
:10002600E709F608DFFA8046E709F208DFFA803EBC
:1000360088828C83E709F0A3DFFA8032E309F608A9
:10004600DFFA8078E309F208DFFA807088828C8311
:10005600E309F0A3DFFA806489828A83E0A3F608C5
:10006600DFFA805889828A83E0A3F208DFFA804C9F
:1000760080D280FA80C680D4806980F28033801076
:1000860080A680EA809A80A880DA80E280CA8033DF
:1000960089828A83ECFAE493A3C8C582C8CCC58357
:1000A600CCF0A3C8C582C8CCC583CCDFE9DEE78027
:1000B6000D89828A83E493A3F608DFF9ECFAA9F0A6
:1000C600EDFB2289828A83ECFAE0A3C8C582C8CCFC
:1000D600C583CCF0A3C8C582C8CCC583CCDFEADE15
:1000E600E880DB89828A83E493A3F208DFF980CC77
:1000F60088F0EF60010E4E60C388F0ED2402B40470
:100106000050B9F582EB2402B4040050AF23234516
:06011600822390007673C5
:10012800020237E493A3F8E493A34003F68001F2B4
:1001380008DFF48029E493A3F85407240CC8C333D8
:10014800C4540F4420C8834004F456800146F6DFA7
:10015800E4800B01020408102040809002C2E47E73
:10016800019360BCA3FF543F30E509541FFEE4939C
:10017800A360010ECF54C025E060A840B8E493A363
:10018800FAE493A3F8E493A3C8C582C8CAC583CA8E
:10019800F0A3C8C582C8CAC583CADFE9DEE780BE46
:0102CE00002F
:00000001FF
