:0801E4007FBFDFEFF7FBFDFE1A
:1001A200C100080B000000000000000007155469A0
:0E01B200656E537900010A0001130001090077
:10000E00758920758DFD759850D28ED2AFD2AC22E7
:03000B000201DB14
:0901DB00758CFC758A18050832C8
:10018200E4FDFCC3ED9FEC9E5015E4FBFA0BBB00B3
:0F019200010AEB647B4A70F50DBD00010C80E49F
:0101A100223B
:080003008F993099FDC299228A
:0300230002012CAB
:10012C00C0E0C0D075D000C000309818859914C2BA
:10013C0098D200740B2509F8A6140509E509640882
:0B014C007002F509D000D0D0D0E032E6
:1000FE007F01E4FEEEC39406748094805014741550
:10010E002EF8E6FD740B2EF8E66D6003E4FF220E6A
:0D011E0080E2EF6401700685111385120A5E
:01012B0022B1
:10015700C2B6C2B5E4FEEEC394087480948050160C
:10016700EFC4131313540124FF92B4EF25E0FFD219
:0A017700B6C2B60E80E0D2B5C2B5E4
:01018100225B
:1000B200E4F51CC3E51C940474809480503DE4F97B
:1000C200E9C3940874809480501FE4FF120157E939
:1000D2009001E493F580740B29F8E6FF1201577F33
:1000E200067E001201820980D7E50A70057F46125A
:0B00F2000003AF13120003051C80B8D0
:0100FD0022E0
:1001C100C2A012000E1200FEEF60FAAF0A12000385
:0A01D100AF131200031200B280EB1E
:03000000020026D5
:0C002600787FE4F6D8FD75812002006DA3
:100032000201C1E493A3F8E493A34003F68001F222
:1000420008DFF48029E493A3F85407240CC8C333CF
:10005200C4540F4420C8834004F456800146F6DF9E
:10006200E4800B01020408102040809001A2E47E8B
:10007200019360BCA3FF543F30E509541FFEE49393
:10008200A360010ECF54C025E060A840B8E493A35A
:10009200FAE493A3F8E493A3C8C582C8CAC583CA85
:1000A200F0A3C8C582C8CAC583CADFE9DEE780BE3D
:0101C000003E
:00000001FF
