:08023F007FBFDFEFF7FBFDFEBE
:100209000124000168000222000001650001670065
:0A02190008690102040810204000EB
:10022400758920758DFD759850D28ED2AFD2AC22CF
:10016600C2B6C2B5E4FEEFC4131313540124FF92C2
:10017600B4EF25E0FFD2B60000C2B60EBE08E7D245
:05018600B50000C2B548
:01018B002251
:10000300E4FDFCC3ED9FEC9E5015E4FBFA0BBB0033
:0F001300010AEB647B4A70F50DBD00010C80E41F
:0100220022BB
:1001ED00E4F9E4FF120166746929F8E6FF1201666D
:0B01FD007F647E0012000309B908E7D0
:0102080022D3
:10011500E524F522E568F523E523AE227803CEC371
:1001250013CE13D8F9F9E4FFFEE9FDC3EF9DEE9474
:10013500005028E4FDFC300010C200EF75F008A463
:1001450024252DF8A6663098FD0DBD00010CED6443
:10015500084C70E20FBF00010E80CE856621C200FB
:010165002277
:1000B200E523AE227803CEC313CE13D8F9F50AE4B2
:1000C200F9E9C3950A504BE4F509E509C395655072
:1000D20033E4F508E4FF120166E50890023F93F568
:1000E20080E975F008A424252508F8E6FF120166C8
:1000F2007F027E001200030508E508C3940840D47D
:10010200050980C6E50A14FFE9C39F400279FF0989
:0201120080AFBC
:0101140022C8
:10018C0030001EC2008566683098FD300013C20036
:10019C008566243098FD300008C20085666530986D
:0201AC00FD2232
:03002300020234A2
:0B023400309807859966C298D200320E
:1001D000300017E566B42A12C2003098FDE566B417
:0D01E0002A08C2003098FD7F01227F002216
:1001AE00E4F5801202241201EDE4F5801201D0EF85
:1001BE0060FA12018C120115E521B42AEF1200B279
:0201CE0080EAC5
:03000000020026D5
:0C002600787FE4F6D8FD75817002006D53
:100032000201AEE493A3F8E493A34003F68001F235
:1000420008DFF48029E493A3F85407240CC8C333CF
:10005200C4540F4420C8834004F456800146F6DF9E
:10006200E4800B0102040810204080900209E47E23
:10007200019360BCA3FF543F30E509541FFEE49393
:10008200A360010ECF54C025E060A840B8E493A35A
:10009200FAE493A3F8E493A3C8C582C8CAC583CA85
:1000A200F0A3C8C582C8CAC583CADFE9DEE780BE3D
:0102230000DA
:00000001FF
