:08024D007FBFDFEFF7FBFDFEB0
:10021900C100C10102620000086F2A2A2A000000F9
:050229000000016E0061
:10022F00758920758DFD759850D28ED2AFD2AC22C4
:1001EB00E4FFE4FEEF75F008A424212EF8E4F60EEC
:0701FB00BE08F10FBF08EB85
:0102020022D9
:1001C500C2B6C2B5E4FEEFC4131313540124FF9263
:1001D500B4EF25E0FFD2B60000C2B60EBE08E7D2E6
:0501E500B50000C2B5E9
:0101EA0022F2
:10000300E4FDFCC3ED9FEC9E5015E4FBFA0BBB0033
:0F001300010AEB647B4A70F50DBD00010C80E41F
:0100220022BB
:10020300E4FF1201C57FFF1201C57FC87E00120003
:0602130003E4FF0201C537
:10019600D202E4FF746F2FF8E6FE74642FF8E66E61
:1001A6006002C2020FBF03EC3002118567728568D8
:0E01B60073856974E573F562E572F563A20264
:0101C4002218
:030023000200B226
:1000B200C0E0C0F0C0D075D000C000C004C006C00F
:1000C2000730985E20002285996CC2987464256D71
:1000D200F8A66C056DE56D64087047F56D12019622
:1000E2005040D2001201EB803985996CC298E561CB
:1000F20075F008A42421256EF8A66C056EE56EB491
:100102000805756E000561E563AE627803CEC31320
:10011200CE13D8F97C00B56109ECB506057561000E
:10012200C200D007D006D004D000D0D0D0F0D0E0AA
:01013200329A
:10013300E563AE627803CEC313CE13D8F9F50AE4B0
:10014300F9E9C3950A504BE4F509E509C3957450E1
:1001530033E4F508E4FF1201C5E50890024D93F579
:1001630080E975F008A424212508F8E6FF1201C5EB
:100173007F027E001200030508E508C3940840D4FB
:10018300050980C6E50A14FFE9C39F400279FF0908
:0201930080AF3B
:010195002247
:0E023F00E4F58012022F12020312013380FB3D
:03000000020026D5
:0C002600787FE4F6D8FD75817602006D4D
:1000320002023FE493A3F8E493A34003F68001F2A3
:1000420008DFF48029E493A3F85407240CC8C333CF
:10005200C4540F4420C8834004F456800146F6DF9E
:10006200E4800B0102040810204080900219E47E13
:10007200019360BCA3FF543F30E509541FFEE49393
:10008200A360010ECF54C025E060A840B8E493A35A
:10009200FAE493A3F8E493A3C8C582C8CAC583CA85
:1000A200F0A3C8C582C8CAC583CADFE9DEE780BE3D
:01022E0000CF
:00000001FF
